{
  "contractName": "SimpleStorage",
  "abi": [
    {
      "constant": false,
      "inputs": [
        {
          "name": "s",
          "type": "string"
        },
        {
          "name": "t",
          "type": "string"
        }
      ],
      "name": "setWord",
      "outputs": [],
      "payable": false,
      "stateMutability": "nonpayable",
      "type": "function"
    },
    {
      "constant": true,
      "inputs": [
        {
          "name": "random",
          "type": "uint256"
        }
      ],
      "name": "getRandomWord",
      "outputs": [
        {
          "name": "",
          "type": "uint256"
        },
        {
          "name": "",
          "type": "string"
        },
        {
          "name": "",
          "type": "address"
        },
        {
          "name": "",
          "type": "string"
        }
      ],
      "payable": false,
      "stateMutability": "view",
      "type": "function"
    }
  ],
  "bytecode": "0x608060405234801561001057600080fd5b50610741806100206000396000f3fe60806040526004361061004c576000357c0100000000000000000000000000000000000000000000000000000000900463ffffffff1680638c595a9514610051578063cc76b911146101b0575b600080fd5b34801561005d57600080fd5b506101ae6004803603604081101561007457600080fd5b810190808035906020019064010000000081111561009157600080fd5b8201836020820111156100a357600080fd5b803590602001918460018302840111640100000000831117156100c557600080fd5b91908080601f016020809104026020016040519081016040528093929190818152602001838380828437600081840152601f19601f8201169050808301925050505050505091929192908035906020019064010000000081111561012857600080fd5b82018360208201111561013a57600080fd5b8035906020019184600183028401116401000000008311171561015c57600080fd5b91908080601f016020809104026020016040519081016040528093929190818152602001838380828437600081840152601f19601f82011690508083019250505050505050919291929050505061030a565b005b3480156101bc57600080fd5b506101e9600480360360208110156101d357600080fd5b81019080803590602001909291905050506103f1565b60405180858152602001806020018473ffffffffffffffffffffffffffffffffffffffff1673ffffffffffffffffffffffffffffffffffffffff16815260200180602001838103835286818151815260200191508051906020019080838360005b8381101561026557808201518184015260208101905061024a565b50505050905090810190601f1680156102925780820380516001836020036101000a031916815260200191505b50838103825284818151815260200191508051906020019080838360005b838110156102cb5780820151818401526020810190506102b0565b50505050905090810190601f1680156102f85780820380516001836020036101000a031916815260200191505b50965050505050505060405180910390f35b60006060604051908101604052808481526020013373ffffffffffffffffffffffffffffffffffffffff16815260200183815250908060018154018082558091505090600182039060005260206000209060030201600090919290919091506000820151816000019080519060200190610385929190610638565b5060208201518160010160006101000a81548173ffffffffffffffffffffffffffffffffffffffff021916908373ffffffffffffffffffffffffffffffffffffffff16021790555060408201518160020190805190602001906103e9929190610638565b505050505050565b600060606000606060008080549050141561043f5760003381915060206040519081016040528060008152509080905060206040519081016040528060008152509350935093509350610631565b6104476106b8565b60008681548110151561045657fe5b906000526020600020906003020160606040519081016040529081600082018054600181600116156101000203166002900480601f0160208091040260200160405190810160405280929190818152602001828054600181600116156101000203166002900480156105095780601f106104de57610100808354040283529160200191610509565b820191906000526020600020905b8154815290600101906020018083116104ec57829003601f168201915b505050505081526020016001820160009054906101000a900473ffffffffffffffffffffffffffffffffffffffff1673ffffffffffffffffffffffffffffffffffffffff1673ffffffffffffffffffffffffffffffffffffffff168152602001600282018054600181600116156101000203166002900480601f0160208091040260200160405190810160405280929190818152602001828054600181600116156101000203166002900480156106015780601f106105d657610100808354040283529160200191610601565b820191906000526020600020905b8154815290600101906020018083116105e457829003601f168201915b50505050508152505090506000805490508160000151826020015183604001518292508090509450945094509450505b9193509193565b828054600181600116156101000203166002900490600052602060002090601f016020900481019282601f1061067957805160ff19168380011785556106a7565b828001600101855582156106a7579182015b828111156106a657825182559160200191906001019061068b565b5b5090506106b491906106f0565b5090565b60606040519081016040528060608152602001600073ffffffffffffffffffffffffffffffffffffffff168152602001606081525090565b61071291905b8082111561070e5760008160009055506001016106f6565b5090565b9056fea165627a7a72305820f8ad036eb95022a4a23aec00f1c25e1d43631df57296ee87ad4c52389a8bf73b0029",
  "source": "pragma solidity ^0.5.0;\n\ncontract SimpleStorage {\n    // 留言结构体\n    struct Message {\n        string word; // 留言\n        address from; // 留言者地址\n        string timestamp ; // 留言unix时间戳\n    }\n\n    Message[] private wordAdrr;\n\n    /**\n     * 写入留言的方法\n     */\n\n  function setWord(string memory s, string memory t) public {\n    wordAdrr.push(Message({\n      word: s,\n      from: msg.sender,\n      timestamp: t\n      }));\n  }\n\n    /**\n     * 获取随机留言的方法\n     */\n  function getRandomWord(uint random) public view returns (uint, string memory, address, string memory) {\n    if(wordAdrr.length==0){\n      return (0, \"\", msg.sender, \"\");\n    }else{\n      Message memory result  = wordAdrr[random];\n      return (wordAdrr.length, result.word, result.from, result.timestamp);\n    }\n}\n}\n",
  "sourcePath": "/Users/cpeixin/local/Projects/Truffle/EternalMessage/contracts/SimpleStorage.sol",
  "compiler": {
    "name": "solc",
    "version": "0.5.0+commit.1d4f565a.Emscripten.clang"
  },
  "schemaVersion": "3.0.1",
  "updatedAt": "2019-02-26T14:13:29.978Z",
  "devdoc": {
    "methods": {}
  },
  "userdoc": {
    "methods": {
      "getRandomWord(uint256)": {
        "notice": "获取随机留言的方法"
      },
      "setWord(string,string)": {
        "notice": "写入留言的方法"
      }
    }
  }
}